{
  "contractName": "TasksContract",
  "abi": [
    {
      "inputs": [],
      "payable": false,
      "stateMutability": "nonpayable",
      "type": "constructor"
    },
    {
      "anonymous": false,
      "inputs": [
        {
          "indexed": false,
          "internalType": "uint256",
          "name": "id",
          "type": "uint256"
        },
        {
          "indexed": false,
          "internalType": "string",
          "name": "title",
          "type": "string"
        },
        {
          "indexed": false,
          "internalType": "string",
          "name": "description",
          "type": "string"
        },
        {
          "indexed": false,
          "internalType": "bool",
          "name": "done",
          "type": "bool"
        },
        {
          "indexed": false,
          "internalType": "uint256",
          "name": "createdAt",
          "type": "uint256"
        }
      ],
      "name": "TaskCreated",
      "type": "event"
    },
    {
      "anonymous": false,
      "inputs": [
        {
          "indexed": false,
          "internalType": "uint256",
          "name": "id",
          "type": "uint256"
        },
        {
          "indexed": false,
          "internalType": "bool",
          "name": "done",
          "type": "bool"
        }
      ],
      "name": "TaskToggledDone",
      "type": "event"
    },
    {
      "constant": true,
      "inputs": [
        {
          "internalType": "uint256",
          "name": "",
          "type": "uint256"
        }
      ],
      "name": "tasks",
      "outputs": [
        {
          "internalType": "uint256",
          "name": "id",
          "type": "uint256"
        },
        {
          "internalType": "string",
          "name": "title",
          "type": "string"
        },
        {
          "internalType": "string",
          "name": "description",
          "type": "string"
        },
        {
          "internalType": "bool",
          "name": "done",
          "type": "bool"
        },
        {
          "internalType": "uint256",
          "name": "createdAt",
          "type": "uint256"
        }
      ],
      "payable": false,
      "stateMutability": "view",
      "type": "function"
    },
    {
      "constant": true,
      "inputs": [],
      "name": "tasksCounter",
      "outputs": [
        {
          "internalType": "uint256",
          "name": "",
          "type": "uint256"
        }
      ],
      "payable": false,
      "stateMutability": "view",
      "type": "function"
    },
    {
      "constant": false,
      "inputs": [
        {
          "internalType": "string",
          "name": "_title",
          "type": "string"
        },
        {
          "internalType": "string",
          "name": "_description",
          "type": "string"
        }
      ],
      "name": "createTask",
      "outputs": [],
      "payable": false,
      "stateMutability": "nonpayable",
      "type": "function"
    },
    {
      "constant": false,
      "inputs": [
        {
          "internalType": "uint256",
          "name": "_id",
          "type": "uint256"
        }
      ],
      "name": "toggleDone",
      "outputs": [],
      "payable": false,
      "stateMutability": "nonpayable",
      "type": "function"
    }
  ],
  "bytecode": "0x60806040526000805534801561001457600080fd5b5061008f6040518060400160405280600d81526020017f6d79206669727374207461736b000000000000000000000000000000000000008152506040518060400160405280601481526020017f6d79206669727374206465736372697074696f6e00000000000000000000000081525061009460201b60201c565b610327565b60008081548092919060010191905055506040518060a00160405280600054815260200183815260200182815260200160001515815260200142815250600160008054815260200190815260200160002060008201518160000155602082015181600101908051906020019061010b929190610282565b506040820151816002019080519060200190610128929190610282565b5060608201518160030160006101000a81548160ff021916908315150217905550608082015181600401559050507f6549102bed7d1bb5ec529ee14e2ca60ffc1f47f66d4cc6ca713220613cc64c25600054838360004260405180868152602001806020018060200185151515158152602001848152602001838103835287818151815260200191508051906020019080838360005b838110156101d95780820151818401526020810190506101be565b50505050905090810190601f1680156102065780820380516001836020036101000a031916815260200191505b50838103825286818151815260200191508051906020019080838360005b8381101561023f578082015181840152602081019050610224565b50505050905090810190601f16801561026c5780820380516001836020036101000a031916815260200191505b5097505050505050505060405180910390a15050565b828054600181600116156101000203166002900490600052602060002090601f016020900481019282601f106102c357805160ff19168380011785556102f1565b828001600101855582156102f1579182015b828111156102f05782518255916020019190600101906102d5565b5b5090506102fe9190610302565b5090565b61032491905b80821115610320576000816000905550600101610308565b5090565b90565b610a0d80620003376000396000f3fe608060405234801561001057600080fd5b506004361061004c5760003560e01c8063292a45851461005157806385c3e723146101a35780638d977672146101c1578063d81ef739146102ed575b600080fd5b6101a16004803603604081101561006757600080fd5b810190808035906020019064010000000081111561008457600080fd5b82018360208201111561009657600080fd5b803590602001918460018302840111640100000000831117156100b857600080fd5b91908080601f016020809104026020016040519081016040528093929190818152602001838380828437600081840152601f19601f8201169050808301925050505050505091929192908035906020019064010000000081111561011b57600080fd5b82018360208201111561012d57600080fd5b8035906020019184600183028401116401000000008311171561014f57600080fd5b91908080601f016020809104026020016040519081016040528093929190818152602001838380828437600081840152601f19601f82011690508083019250505050505050919291929050505061031b565b005b6101ab610509565b6040518082815260200191505060405180910390f35b6101ed600480360360208110156101d757600080fd5b810190808035906020019092919050505061050f565b60405180868152602001806020018060200185151515158152602001848152602001838103835287818151815260200191508051906020019080838360005b8381101561024757808201518184015260208101905061022c565b50505050905090810190601f1680156102745780820380516001836020036101000a031916815260200191505b50838103825286818151815260200191508051906020019080838360005b838110156102ad578082015181840152602081019050610292565b50505050905090810190601f1680156102da5780820380516001836020036101000a031916815260200191505b5097505050505050505060405180910390f35b6103196004803603602081101561030357600080fd5b8101908080359060200190929190505050610682565b005b60008081548092919060010191905055506040518060a001604052806000548152602001838152602001828152602001600015158152602001428152506001600080548152602001908152602001600020600082015181600001556020820151816001019080519060200190610392929190610902565b5060408201518160020190805190602001906103af929190610902565b5060608201518160030160006101000a81548160ff021916908315150217905550608082015181600401559050507f6549102bed7d1bb5ec529ee14e2ca60ffc1f47f66d4cc6ca713220613cc64c25600054838360004260405180868152602001806020018060200185151515158152602001848152602001838103835287818151815260200191508051906020019080838360005b83811015610460578082015181840152602081019050610445565b50505050905090810190601f16801561048d5780820380516001836020036101000a031916815260200191505b50838103825286818151815260200191508051906020019080838360005b838110156104c65780820151818401526020810190506104ab565b50505050905090810190601f1680156104f35780820380516001836020036101000a031916815260200191505b5097505050505050505060405180910390a15050565b60005481565b6001602052806000526040600020600091509050806000015490806001018054600181600116156101000203166002900480601f0160208091040260200160405190810160405280929190818152602001828054600181600116156101000203166002900480156105c15780601f10610596576101008083540402835291602001916105c1565b820191906000526020600020905b8154815290600101906020018083116105a457829003601f168201915b505050505090806002018054600181600116156101000203166002900480601f01602080910402602001604051908101604052809291908181526020018280546001816001161561010002031660029004801561065f5780601f106106345761010080835404028352916020019161065f565b820191906000526020600020905b81548152906001019060200180831161064257829003601f168201915b5050505050908060030160009054906101000a900460ff16908060040154905085565b61068a610982565b600160008381526020019081526020016000206040518060a001604052908160008201548152602001600182018054600181600116156101000203166002900480601f01602080910402602001604051908101604052809291908181526020018280546001816001161561010002031660029004801561074b5780601f106107205761010080835404028352916020019161074b565b820191906000526020600020905b81548152906001019060200180831161072e57829003601f168201915b50505050508152602001600282018054600181600116156101000203166002900480601f0160208091040260200160405190810160405280929190818152602001828054600181600116156101000203166002900480156107ed5780601f106107c2576101008083540402835291602001916107ed565b820191906000526020600020905b8154815290600101906020018083116107d057829003601f168201915b505050505081526020016003820160009054906101000a900460ff161515151581526020016004820154815250509050806060015115816060019015159081151581525050806001600084815260200190815260200160002060008201518160000155602082015181600101908051906020019061086c929190610902565b506040820151816002019080519060200190610889929190610902565b5060608201518160030160006101000a81548160ff021916908315150217905550608082015181600401559050507f3a359256e016dcfa8426ec503e08484999d6fcfb8c0f6084dc9e63374d83842982826060015160405180838152602001821515151581526020019250505060405180910390a15050565b828054600181600116156101000203166002900490600052602060002090601f016020900481019282601f1061094357805160ff1916838001178555610971565b82800160010185558215610971579182015b82811115610970578251825591602001919060010190610955565b5b50905061097e91906109b3565b5090565b6040518060a00160405280600081526020016060815260200160608152602001600015158152602001600081525090565b6109d591905b808211156109d15760008160009055506001016109b9565b5090565b9056fea265627a7a72315820d87a0f36c892c1cbe14ae35687867a000a7726c7f23bb11739baca0c7517d5e764736f6c63430005100032",
  "source": "// SPDX-License-Identifier: MIT\npragma solidity ^0.5.16;\n\ncontract TasksContract {\n    uint256 public tasksCounter = 0;\n\n    struct Task {\n        uint256 id;\n        string title;\n        string description;\n        bool done;\n        uint256 createdAt;\n    }\n\n    event TaskCreated(\n        uint256 id,\n        string title,\n        string description,\n        bool done,\n        uint256 createdAt\n    );\n    event TaskToggledDone(uint256 id, bool done);\n\n    mapping(uint256 => Task) public tasks;\n\n    constructor() public {\n        createTask(\"my first task\", \"my first description\");\n    }\n\n    function createTask(string memory _title, string memory _description)\n        public\n    {\n        tasksCounter++;\n        tasks[tasksCounter] = Task(\n            tasksCounter,\n            _title,\n            _description,\n            false,\n            block.timestamp\n        );\n        emit TaskCreated(\n            tasksCounter,\n            _title,\n            _description,\n            false,\n            block.timestamp\n        );\n    }\n\n    function toggleDone(uint256 _id) public {\n        Task memory _task = tasks[_id];\n        _task.done = !_task.done;\n        tasks[_id] = _task;\n        emit TaskToggledDone(_id, _task.done);\n    }\n}\n",
  "sourcePath": "/Users/mac/Desktop/solidity-javascript-dtasks/contracts/TasksContract.sol",
  "compiler": {
    "name": "solc",
    "version": "0.5.16+commit.9c3226ce.Emscripten.clang"
  },
  "schemaVersion": "3.4.4",
  "updatedAt": "2022-01-21T16:38:25.596Z",
  "networkType": "ethereum",
  "devdoc": {
    "methods": {}
  },
  "userdoc": {
    "methods": {}
  }
}